{"abi":[{"type":"function","name":"recoverSigner","inputs":[{"name":"hash","type":"bytes32","internalType":"bytes32"},{"name":"signature","type":"bytes","internalType":"bytes"}],"outputs":[{"name":"","type":"address","internalType":"address"}],"stateMutability":"pure"},{"type":"error","name":"ECDSAInvalidSignature","inputs":[]},{"type":"error","name":"ECDSAInvalidSignatureLength","inputs":[{"name":"length","type":"uint256","internalType":"uint256"}]},{"type":"error","name":"ECDSAInvalidSignatureS","inputs":[{"name":"s","type":"bytes32","internalType":"bytes32"}]}],"bytecode":{"object":"0x6080604052348015600e575f5ffd5b5061068d8061001c5f395ff3fe608060405234801561000f575f5ffd5b5060043610610029575f3560e01c806397aba7f91461002d575b5f5ffd5b610047600480360381019061004291906104c1565b61005d565b604051610054919061055a565b60405180910390f35b5f610071828461007990919063ffffffff16565b905092915050565b5f5f5f5f61008786866100a3565b92509250925061009782826100f8565b82935050505092915050565b5f5f5f60418451036100e3575f5f5f602087015192506040870151915060608701515f1a90506100d58882858561025a565b9550955095505050506100f1565b5f600285515f1b9250925092505b9250925092565b5f600381111561010b5761010a610573565b5b82600381111561011e5761011d610573565b5b0315610256576001600381111561013857610137610573565b5b82600381111561014b5761014a610573565b5b03610182576040517ff645eedf00000000000000000000000000000000000000000000000000000000815260040160405180910390fd5b6002600381111561019657610195610573565b5b8260038111156101a9576101a8610573565b5b036101ed57805f1c6040517ffce698f70000000000000000000000000000000000000000000000000000000081526004016101e491906105b8565b60405180910390fd5b600380811115610200576101ff610573565b5b82600381111561021357610212610573565b5b0361025557806040517fd78bce0c00000000000000000000000000000000000000000000000000000000815260040161024c91906105e0565b60405180910390fd5b5b5050565b5f5f5f7f7fffffffffffffffffffffffffffffff5d576e7357a4501ddfe92f46681b20a0845f1c1115610296575f600385925092509250610337565b5f6001888888886040515f81526020016040526040516102b99493929190610614565b6020604051602081039080840390855afa1580156102d9573d5f5f3e3d5ffd5b5050506020604051035190505f73ffffffffffffffffffffffffffffffffffffffff168173ffffffffffffffffffffffffffffffffffffffff160361032a575f60015f5f1b93509350935050610337565b805f5f5f1b935093509350505b9450945094915050565b5f604051905090565b5f5ffd5b5f5ffd5b5f819050919050565b61036481610352565b811461036e575f5ffd5b50565b5f8135905061037f8161035b565b92915050565b5f5ffd5b5f5ffd5b5f601f19601f8301169050919050565b7f4e487b71000000000000000000000000000000000000000000000000000000005f52604160045260245ffd5b6103d38261038d565b810181811067ffffffffffffffff821117156103f2576103f161039d565b5b80604052505050565b5f610404610341565b905061041082826103ca565b919050565b5f67ffffffffffffffff82111561042f5761042e61039d565b5b6104388261038d565b9050602081019050919050565b828183375f83830152505050565b5f61046561046084610415565b6103fb565b90508281526020810184848401111561048157610480610389565b5b61048c848285610445565b509392505050565b5f82601f8301126104a8576104a7610385565b5b81356104b8848260208601610453565b91505092915050565b5f5f604083850312156104d7576104d661034a565b5b5f6104e485828601610371565b925050602083013567ffffffffffffffff8111156105055761050461034e565b5b61051185828601610494565b9150509250929050565b5f73ffffffffffffffffffffffffffffffffffffffff82169050919050565b5f6105448261051b565b9050919050565b6105548161053a565b82525050565b5f60208201905061056d5f83018461054b565b92915050565b7f4e487b71000000000000000000000000000000000000000000000000000000005f52602160045260245ffd5b5f819050919050565b6105b2816105a0565b82525050565b5f6020820190506105cb5f8301846105a9565b92915050565b6105da81610352565b82525050565b5f6020820190506105f35f8301846105d1565b92915050565b5f60ff82169050919050565b61060e816105f9565b82525050565b5f6080820190506106275f8301876105d1565b6106346020830186610605565b61064160408301856105d1565b61064e60608301846105d1565b9594505050505056fea2646970667358221220a58e61314490afdb844ea6d3dacc4491d399d3226798c19820ebc7d75d7392e564736f6c63430008210033","linkReferences":{}},"methodIdentifiers":{"recoverSigner(bytes32,bytes)":"97aba7f9"},"id":32}