{"abi":[{"type":"constructor","inputs":[{"name":"owners","type":"address[]","internalType":"address[]"},{"name":"threshold","type":"uint256","internalType":"uint256"}],"stateMutability":"nonpayable"},{"type":"receive","stateMutability":"payable"},{"type":"function","name":"TIMELOCK_DURATION","inputs":[],"outputs":[{"name":"","type":"uint256","internalType":"uint256"}],"stateMutability":"view"},{"type":"function","name":"balances","inputs":[{"name":"","type":"address","internalType":"address"}],"outputs":[{"name":"","type":"uint256","internalType":"uint256"}],"stateMutability":"view"},{"type":"function","name":"claim","inputs":[{"name":"proof","type":"bytes32[]","internalType":"bytes32[]"},{"name":"amount","type":"uint256","internalType":"uint256"}],"outputs":[],"stateMutability":"nonpayable"},{"type":"function","name":"claimed","inputs":[{"name":"","type":"address","internalType":"address"}],"outputs":[{"name":"","type":"bool","internalType":"bool"}],"stateMutability":"view"},{"type":"function","name":"confirmTransaction","inputs":[{"name":"txId","type":"uint256","internalType":"uint256"}],"outputs":[],"stateMutability":"nonpayable"},{"type":"function","name":"confirmed","inputs":[{"name":"","type":"uint256","internalType":"uint256"},{"name":"","type":"address","internalType":"address"}],"outputs":[{"name":"","type":"bool","internalType":"bool"}],"stateMutability":"view"},{"type":"function","name":"deposit","inputs":[],"outputs":[],"stateMutability":"payable"},{"type":"function","name":"executeTransaction","inputs":[{"name":"txId","type":"uint256","internalType":"uint256"}],"outputs":[],"stateMutability":"nonpayable"},{"type":"function","name":"isOwner","inputs":[{"name":"","type":"address","internalType":"address"}],"outputs":[{"name":"","type":"bool","internalType":"bool"}],"stateMutability":"view"},{"type":"function","name":"merkleRoot","inputs":[],"outputs":[{"name":"","type":"bytes32","internalType":"bytes32"}],"stateMutability":"view"},{"type":"function","name":"owners","inputs":[{"name":"","type":"uint256","internalType":"uint256"}],"outputs":[{"name":"","type":"address","internalType":"address"}],"stateMutability":"view"},{"type":"function","name":"pause","inputs":[],"outputs":[],"stateMutability":"nonpayable"},{"type":"function","name":"paused","inputs":[],"outputs":[{"name":"","type":"bool","internalType":"bool"}],"stateMutability":"view"},{"type":"function","name":"recoverSigner","inputs":[{"name":"hash","type":"bytes32","internalType":"bytes32"},{"name":"signature","type":"bytes","internalType":"bytes"}],"outputs":[{"name":"","type":"address","internalType":"address"}],"stateMutability":"pure"},{"type":"function","name":"setMerkleRoot","inputs":[{"name":"root","type":"bytes32","internalType":"bytes32"}],"outputs":[],"stateMutability":"nonpayable"},{"type":"function","name":"submitTransaction","inputs":[{"name":"to","type":"address","internalType":"address"},{"name":"value","type":"uint256","internalType":"uint256"},{"name":"data","type":"bytes","internalType":"bytes"}],"outputs":[{"name":"","type":"uint256","internalType":"uint256"}],"stateMutability":"nonpayable"},{"type":"function","name":"threshold","inputs":[],"outputs":[{"name":"","type":"uint256","internalType":"uint256"}],"stateMutability":"view"},{"type":"function","name":"totalVaultValue","inputs":[],"outputs":[{"name":"","type":"uint256","internalType":"uint256"}],"stateMutability":"view"},{"type":"function","name":"transactions","inputs":[{"name":"","type":"uint256","internalType":"uint256"}],"outputs":[{"name":"to","type":"address","internalType":"address"},{"name":"value","type":"uint256","internalType":"uint256"},{"name":"data","type":"bytes","internalType":"bytes"},{"name":"executed","type":"bool","internalType":"bool"},{"name":"confirmations","type":"uint256","internalType":"uint256"},{"name":"submissionTime","type":"uint256","internalType":"uint256"},{"name":"executionTime","type":"uint256","internalType":"uint256"}],"stateMutability":"view"},{"type":"function","name":"txCount","inputs":[],"outputs":[{"name":"","type":"uint256","internalType":"uint256"}],"stateMutability":"view"},{"type":"function","name":"unpause","inputs":[],"outputs":[],"stateMutability":"nonpayable"},{"type":"function","name":"withdraw","inputs":[{"name":"amount","type":"uint256","internalType":"uint256"}],"outputs":[],"stateMutability":"nonpayable"},{"type":"event","name":"Deposit","inputs":[{"name":"user","type":"address","indexed":false,"internalType":"address"},{"name":"amount","type":"uint256","indexed":false,"internalType":"uint256"}],"anonymous":false},{"type":"event","name":"Withdrawal","inputs":[{"name":"user","type":"address","indexed":false,"internalType":"address"},{"name":"amount","type":"uint256","indexed":false,"internalType":"uint256"}],"anonymous":false},{"type":"error","name":"ECDSAInvalidSignature","inputs":[]},{"type":"error","name":"ECDSAInvalidSignatureLength","inputs":[{"name":"length","type":"uint256","internalType":"uint256"}]},{"type":"error","name":"ECDSAInvalidSignatureS","inputs":[{"name":"s","type":"bytes32","internalType":"bytes32"}]}],"bytecode":{"object":"0x608060405234801561000f575f5ffd5b5060405161263f38038061263f8339818101604052810190610031919061034f565b818181815f825111610041575f5ffd5b815181111561004e575f5ffd5b5f5b825181101561014e5760015f5f8584815181106100705761006f6103a9565b5b602002602001015173ffffffffffffffffffffffffffffffffffffffff1673ffffffffffffffffffffffffffffffffffffffff1681526020019081526020015f205f6101000a81548160ff02191690831515021790555060018382815181106100dc576100db6103a9565b5b6020026020010151908060018154018082558091505060019003905f5260205f20015f9091909190916101000a81548173ffffffffffffffffffffffffffffffffffffffff021916908373ffffffffffffffffffffffffffffffffffffffff1602179055508080600101915050610050565b50806002819055505050505050506103d6565b5f604051905090565b5f5ffd5b5f5ffd5b5f5ffd5b5f601f19601f8301169050919050565b7f4e487b71000000000000000000000000000000000000000000000000000000005f52604160045260245ffd5b6101bc82610176565b810181811067ffffffffffffffff821117156101db576101da610186565b5b80604052505050565b5f6101ed610161565b90506101f982826101b3565b919050565b5f67ffffffffffffffff82111561021857610217610186565b5b602082029050602081019050919050565b5f5ffd5b5f73ffffffffffffffffffffffffffffffffffffffff82169050919050565b5f6102568261022d565b9050919050565b6102668161024c565b8114610270575f5ffd5b50565b5f815190506102818161025d565b92915050565b5f610299610294846101fe565b6101e4565b905080838252602082019050602084028301858111156102bc576102bb610229565b5b835b818110156102e557806102d18882610273565b8452602084019350506020810190506102be565b5050509392505050565b5f82601f83011261030357610302610172565b5b8151610313848260208601610287565b91505092915050565b5f819050919050565b61032e8161031c565b8114610338575f5ffd5b50565b5f8151905061034981610325565b92915050565b5f5f604083850312156103655761036461016a565b5b5f83015167ffffffffffffffff8111156103825761038161016e565b5b61038e858286016102ef565b925050602061039f8582860161033b565b9150509250929050565b7f4e487b71000000000000000000000000000000000000000000000000000000005f52603260045260245ffd5b61225c806103e35f395ff3fe608060405260043610610138575f3560e01c80637cb64759116100aa578063afbc74b91161006e578063afbc74b9146104cb578063c01a8c84146104f5578063c64274741461051d578063c884ef8314610559578063d0e30db014610595578063ee22610b1461059f576101e3565b80637cb64759146103d35780638456cb59146103fb5780638790c1de1461041157806397aba7f91461044d5780639ace38c214610489576101e3565b80633b439351116100fc5780633b439351146102ed5780633c540687146103155780633f4ba83a1461033f57806342cde4e8146103555780634623c81e1461037f5780635c975abb146103a9576101e3565b8063025e7c27146101e757806327e235e3146102235780632e1a7d4d1461025f5780632eb4a7ab146102875780632f54bf6e146102b1576101e3565b366101e3573460095f3373ffffffffffffffffffffffffffffffffffffffff1673ffffffffffffffffffffffffffffffffffffffff1681526020019081526020015f205f828254610189919061155a565b9250508190555034600a5f8282546101a1919061155a565b925050819055507fe1fffcc4923d04b559f4d29a8bfc6cda04eb5b0d3c460751c2402c5c5cc9109c33346040516101d99291906115db565b60405180910390a1005b5f5ffd5b3480156101f2575f5ffd5b5061020d6004803603810190610208919061163d565b6105c7565b60405161021a9190611668565b60405180910390f35b34801561022e575f5ffd5b50610249600480360381019061024491906116ab565b610602565b60405161025691906116d6565b60405180910390f35b34801561026a575f5ffd5b506102856004803603810190610280919061163d565b610617565b005b348015610292575f5ffd5b5061029b610791565b6040516102a89190611707565b60405180910390f35b3480156102bc575f5ffd5b506102d760048036038101906102d291906116ab565b610797565b6040516102e4919061173a565b60405180910390f35b3480156102f8575f5ffd5b50610313600480360381019061030e91906117b4565b6107b3565b005b348015610320575f5ffd5b5061032961098b565b60405161033691906116d6565b60405180910390f35b34801561034a575f5ffd5b50610353610991565b005b348015610360575f5ffd5b506103696109ac565b60405161037691906116d6565b60405180910390f35b34801561038a575f5ffd5b506103936109b2565b6040516103a091906116d6565b60405180910390f35b3480156103b4575f5ffd5b506103bd6109b8565b6040516103ca919061173a565b60405180910390f35b3480156103de575f5ffd5b506103f960048036038101906103f4919061183b565b6109ca565b005b348015610406575f5ffd5b5061040f6109d4565b005b34801561041c575f5ffd5b5061043760048036038101906104329190611866565b6109f0565b604051610444919061173a565b60405180910390f35b348015610458575f5ffd5b50610473600480360381019061046e91906119dc565b610a1a565b6040516104809190611668565b60405180910390f35b348015610494575f5ffd5b506104af60048036038101906104aa919061163d565b610a36565b6040516104c29796959493929190611a96565b60405180910390f35b3480156104d6575f5ffd5b506104df610b25565b6040516104ec91906116d6565b60405180910390f35b348015610500575f5ffd5b5061051b6004803603810190610516919061163d565b610b2b565b005b348015610528575f5ffd5b50610543600480360381019061053e9190611b5f565b610bf8565b60405161055091906116d6565b60405180910390f35b348015610564575f5ffd5b5061057f600480360381019061057a91906116ab565b610e4e565b60405161058c919061173a565b60405180910390f35b61059d610e6b565b005b3480156105aa575f5ffd5b506105c560048036038101906105c0919061163d565b610f11565b005b600181815481106105d6575f80fd5b905f5260205f20015f915054906101000a900473ffffffffffffffffffffffffffffffffffffffff1681565b6009602052805f5260405f205f915090505481565b60085f9054906101000a900460ff161561062f575f5ffd5b8060095f3373ffffffffffffffffffffffffffffffffffffffff1673ffffffffffffffffffffffffffffffffffffffff1681526020019081526020015f20541015610678575f5ffd5b8060095f3373ffffffffffffffffffffffffffffffffffffffff1673ffffffffffffffffffffffffffffffffffffffff1681526020019081526020015f205f8282546106c49190611bd0565b9250508190555080600a5f8282546106dc9190611bd0565b925050819055505f3373ffffffffffffffffffffffffffffffffffffffff168260405161070890611c30565b5f6040518083038185875af1925050503d805f8114610742576040519150601f19603f3d011682016040523d82523d5f602084013e610747565b606091505b5050905080610754575f5ffd5b7f7fcf532c15f0a6db0bd6d0e038bea71d30d808c7d98cb3bf7268a95bf5081b6533836040516107859291906115db565b60405180910390a15050565b60065481565b5f602052805f5260405f205f915054906101000a900460ff1681565b5f33826040516020016107c7929190611ca9565b60405160208183030381529060405280519060200120905061082c8484808060200260200160405190810160405280939291908181526020018383602002808284375f81840152601f19601f820116905080830192505050505050506006548361101e565b61086b576040517f08c379a000000000000000000000000000000000000000000000000000000000815260040161086290611d2e565b60405180910390fd5b60075f3373ffffffffffffffffffffffffffffffffffffffff1673ffffffffffffffffffffffffffffffffffffffff1681526020019081526020015f205f9054906101000a900460ff16156108be575f5ffd5b600160075f3373ffffffffffffffffffffffffffffffffffffffff1673ffffffffffffffffffffffffffffffffffffffff1681526020019081526020015f205f6101000a81548160ff0219169083151502179055505f3373ffffffffffffffffffffffffffffffffffffffff168360405161093890611c30565b5f6040518083038185875af1925050503d805f8114610972576040519150601f19603f3d011682016040523d82523d5f602084013e610977565b606091505b5050905080610984575f5ffd5b5050505050565b60055481565b5f60085f6101000a81548160ff021916908315150217905550565b60025481565b610e1081565b60085f9054906101000a900460ff1681565b8060068190555050565b600160085f6101000a81548160ff021916908315150217905550565b6003602052815f5260405f20602052805f5260405f205f915091509054906101000a900460ff1681565b5f610a2e828461103490919063ffffffff16565b905092915050565b6004602052805f5260405f205f91509050805f015f9054906101000a900473ffffffffffffffffffffffffffffffffffffffff1690806001015490806002018054610a8090611d79565b80601f0160208091040260200160405190810160405280929190818152602001828054610aac90611d79565b8015610af75780601f10610ace57610100808354040283529160200191610af7565b820191905f5260205f20905b815481529060010190602001808311610ada57829003601f168201915b505050505090806003015f9054906101000a900460ff16908060040154908060050154908060060154905087565b600a5481565b5f5f3373ffffffffffffffffffffffffffffffffffffffff1673ffffffffffffffffffffffffffffffffffffffff1681526020019081526020015f205f9054906101000a900460ff16610bb3576040517f08c379a0000000000000000000000000000000000000000000000000000000008152600401610baa90611df3565b60405180910390fd5b610bbc8161105e565b5f60045f8381526020019081526020015f209050600254816004015410610bf457610e1042610beb919061155a565b81600601819055505b5050565b5f5f5f3373ffffffffffffffffffffffffffffffffffffffff1673ffffffffffffffffffffffffffffffffffffffff1681526020019081526020015f205f9054906101000a900460ff16610c81576040517f08c379a0000000000000000000000000000000000000000000000000000000008152600401610c7890611df3565b60405180910390fd5b5f60055f815480929190610c9490611e11565b9190505590506040518060e001604052808773ffffffffffffffffffffffffffffffffffffffff16815260200186815260200185858080601f0160208091040260200160405190810160405280939291908181526020018383808284375f81840152601f19601f8201169050808301925050505050505081526020015f15158152602001600181526020014281526020015f81525060045f8381526020019081526020015f205f820151815f015f6101000a81548173ffffffffffffffffffffffffffffffffffffffff021916908373ffffffffffffffffffffffffffffffffffffffff160217905550602082015181600101556040820151816002019081610d9d9190612009565b506060820151816003015f6101000a81548160ff0219169083151502179055506080820151816004015560a0820151816005015560c08201518160060155905050600160035f8381526020019081526020015f205f3373ffffffffffffffffffffffffffffffffffffffff1673ffffffffffffffffffffffffffffffffffffffff1681526020019081526020015f205f6101000a81548160ff02191690831515021790555080915050949350505050565b6007602052805f5260405f205f915054906101000a900460ff1681565b3460095f3373ffffffffffffffffffffffffffffffffffffffff1673ffffffffffffffffffffffffffffffffffffffff1681526020019081526020015f205f828254610eb7919061155a565b9250508190555034600a5f828254610ecf919061155a565b925050819055507fe1fffcc4923d04b559f4d29a8bfc6cda04eb5b0d3c460751c2402c5c5cc9109c3334604051610f079291906115db565b60405180910390a1565b5f60045f8381526020019081526020015f209050806003015f9054906101000a900460ff1615610f3f575f5ffd5b60025481600401541015610f51575f5ffd5b8060060154421015610f61575f5ffd5b6001816003015f6101000a81548160ff0219169083151502179055505f815f015f9054906101000a900473ffffffffffffffffffffffffffffffffffffffff1673ffffffffffffffffffffffffffffffffffffffff16826001015483600201604051610fcd9190612158565b5f6040518083038185875af1925050503d805f8114611007576040519150601f19603f3d011682016040523d82523d5f602084013e61100c565b606091505b5050905080611019575f5ffd5b505050565b5f8261102a85846111f7565b1490509392505050565b5f5f5f5f6110428686611248565b925092509250611052828261129d565b82935050505092915050565b5f5f3373ffffffffffffffffffffffffffffffffffffffff1673ffffffffffffffffffffffffffffffffffffffff1681526020019081526020015f205f9054906101000a900460ff166110e6576040517f08c379a00000000000000000000000000000000000000000000000000000000081526004016110dd90611df3565b60405180910390fd5b5f60045f8381526020019081526020015f209050806003015f9054906101000a900460ff1615611114575f5ffd5b60035f8381526020019081526020015f205f3373ffffffffffffffffffffffffffffffffffffffff1673ffffffffffffffffffffffffffffffffffffffff1681526020019081526020015f205f9054906101000a900460ff1615611176575f5ffd5b600160035f8481526020019081526020015f205f3373ffffffffffffffffffffffffffffffffffffffff1673ffffffffffffffffffffffffffffffffffffffff1681526020019081526020015f205f6101000a81548160ff021916908315150217905550806004015f8154809291906111ee90611e11565b91905055505050565b5f5f8290505f5f90505b845181101561123d5761122e828683815181106112215761122061216e565b5b60200260200101516113ff565b91508080600101915050611201565b508091505092915050565b5f5f5f6041845103611288575f5f5f602087015192506040870151915060608701515f1a905061127a88828585611429565b955095509550505050611296565b5f600285515f1b9250925092505b9250925092565b5f60038111156112b0576112af61219b565b5b8260038111156112c3576112c261219b565b5b03156113fb57600160038111156112dd576112dc61219b565b5b8260038111156112f0576112ef61219b565b5b03611327576040517ff645eedf00000000000000000000000000000000000000000000000000000000815260040160405180910390fd5b6002600381111561133b5761133a61219b565b5b82600381111561134e5761134d61219b565b5b0361139257805f1c6040517ffce698f700000000000000000000000000000000000000000000000000000000815260040161138991906116d6565b60405180910390fd5b6003808111156113a5576113a461219b565b5b8260038111156113b8576113b761219b565b5b036113fa57806040517fd78bce0c0000000000000000000000000000000000000000000000000000000081526004016113f19190611707565b60405180910390fd5b5b5050565b5f818310611416576114118284611510565b611421565b6114208383611510565b5b905092915050565b5f5f5f7f7fffffffffffffffffffffffffffffff5d576e7357a4501ddfe92f46681b20a0845f1c1115611465575f600385925092509250611506565b5f6001888888886040515f815260200160405260405161148894939291906121e3565b6020604051602081039080840390855afa1580156114a8573d5f5f3e3d5ffd5b5050506020604051035190505f73ffffffffffffffffffffffffffffffffffffffff168173ffffffffffffffffffffffffffffffffffffffff16036114f9575f60015f5f1b93509350935050611506565b805f5f5f1b935093509350505b9450945094915050565b5f825f528160205260405f20905092915050565b5f819050919050565b7f4e487b71000000000000000000000000000000000000000000000000000000005f52601160045260245ffd5b5f61156482611524565b915061156f83611524565b92508282019050808211156115875761158661152d565b5b92915050565b5f73ffffffffffffffffffffffffffffffffffffffff82169050919050565b5f6115b68261158d565b9050919050565b6115c6816115ac565b82525050565b6115d581611524565b82525050565b5f6040820190506115ee5f8301856115bd565b6115fb60208301846115cc565b9392505050565b5f604051905090565b5f5ffd5b5f5ffd5b61161c81611524565b8114611626575f5ffd5b50565b5f8135905061163781611613565b92915050565b5f602082840312156116525761165161160b565b5b5f61165f84828501611629565b91505092915050565b5f60208201905061167b5f8301846115bd565b92915050565b61168a816115ac565b8114611694575f5ffd5b50565b5f813590506116a581611681565b92915050565b5f602082840312156116c0576116bf61160b565b5b5f6116cd84828501611697565b91505092915050565b5f6020820190506116e95f8301846115cc565b92915050565b5f819050919050565b611701816116ef565b82525050565b5f60208201905061171a5f8301846116f8565b92915050565b5f8115159050919050565b61173481611720565b82525050565b5f60208201905061174d5f83018461172b565b92915050565b5f5ffd5b5f5ffd5b5f5ffd5b5f5f83601f84011261177457611773611753565b5b8235905067ffffffffffffffff81111561179157611790611757565b5b6020830191508360208202830111156117ad576117ac61175b565b5b9250929050565b5f5f5f604084860312156117cb576117ca61160b565b5b5f84013567ffffffffffffffff8111156117e8576117e761160f565b5b6117f48682870161175f565b9350935050602061180786828701611629565b9150509250925092565b61181a816116ef565b8114611824575f5ffd5b50565b5f8135905061183581611811565b92915050565b5f602082840312156118505761184f61160b565b5b5f61185d84828501611827565b91505092915050565b5f5f6040838503121561187c5761187b61160b565b5b5f61188985828601611629565b925050602061189a85828601611697565b9150509250929050565b5f5ffd5b5f601f19601f8301169050919050565b7f4e487b71000000000000000000000000000000000000000000000000000000005f52604160045260245ffd5b6118ee826118a8565b810181811067ffffffffffffffff8211171561190d5761190c6118b8565b5b80604052505050565b5f61191f611602565b905061192b82826118e5565b919050565b5f67ffffffffffffffff82111561194a576119496118b8565b5b611953826118a8565b9050602081019050919050565b828183375f83830152505050565b5f61198061197b84611930565b611916565b90508281526020810184848401111561199c5761199b6118a4565b5b6119a7848285611960565b509392505050565b5f82601f8301126119c3576119c2611753565b5b81356119d384826020860161196e565b91505092915050565b5f5f604083850312156119f2576119f161160b565b5b5f6119ff85828601611827565b925050602083013567ffffffffffffffff811115611a2057611a1f61160f565b5b611a2c858286016119af565b9150509250929050565b5f81519050919050565b5f82825260208201905092915050565b8281835e5f83830152505050565b5f611a6882611a36565b611a728185611a40565b9350611a82818560208601611a50565b611a8b816118a8565b840191505092915050565b5f60e082019050611aa95f83018a6115bd565b611ab660208301896115cc565b8181036040830152611ac88188611a5e565b9050611ad7606083018761172b565b611ae460808301866115cc565b611af160a08301856115cc565b611afe60c08301846115cc565b98975050505050505050565b5f5f83601f840112611b1f57611b1e611753565b5b8235905067ffffffffffffffff811115611b3c57611b3b611757565b5b602083019150836001820283011115611b5857611b5761175b565b5b9250929050565b5f5f5f5f60608587031215611b7757611b7661160b565b5b5f611b8487828801611697565b9450506020611b9587828801611629565b935050604085013567ffffffffffffffff811115611bb657611bb561160f565b5b611bc287828801611b0a565b925092505092959194509250565b5f611bda82611524565b9150611be583611524565b9250828203905081811115611bfd57611bfc61152d565b5b92915050565b5f81905092915050565b50565b5f611c1b5f83611c03565b9150611c2682611c0d565b5f82019050919050565b5f611c3a82611c10565b9150819050919050565b5f8160601b9050919050565b5f611c5a82611c44565b9050919050565b5f611c6b82611c50565b9050919050565b611c83611c7e826115ac565b611c61565b82525050565b5f819050919050565b611ca3611c9e82611524565b611c89565b82525050565b5f611cb48285611c72565b601482019150611cc48284611c92565b6020820191508190509392505050565b5f82825260208201905092915050565b7f696e76616c69642070726f6f66000000000000000000000000000000000000005f82015250565b5f611d18600d83611cd4565b9150611d2382611ce4565b602082019050919050565b5f6020820190508181035f830152611d4581611d0c565b9050919050565b7f4e487b71000000000000000000000000000000000000000000000000000000005f52602260045260245ffd5b5f6002820490506001821680611d9057607f821691505b602082108103611da357611da2611d4c565b5b50919050565b7f6e6f74206f776e657200000000000000000000000000000000000000000000005f82015250565b5f611ddd600983611cd4565b9150611de882611da9565b602082019050919050565b5f6020820190508181035f830152611e0a81611dd1565b9050919050565b5f611e1b82611524565b91507fffffffffffffffffffffffffffffffffffffffffffffffffffffffffffffffff8203611e4d57611e4c61152d565b5b600182019050919050565b5f819050815f5260205f209050919050565b5f6020601f8301049050919050565b5f82821b905092915050565b5f60088302611eb47fffffffffffffffffffffffffffffffffffffffffffffffffffffffffffffffff82611e79565b611ebe8683611e79565b95508019841693508086168417925050509392505050565b5f819050919050565b5f611ef9611ef4611eef84611524565b611ed6565b611524565b9050919050565b5f819050919050565b611f1283611edf565b611f26611f1e82611f00565b848454611e85565b825550505050565b5f5f905090565b611f3d611f2e565b611f48818484611f09565b505050565b5f5b82811015611f6e57611f635f828401611f35565b600181019050611f4f565b505050565b601f821115611fc15782821115611fc057611f8d81611e58565b611f9683611e6a565b611f9f85611e6a565b6020861015611fac575f90505b808301611fbb82840382611f4d565b505050505b5b505050565b5f82821c905092915050565b5f611fe15f1984600802611fc6565b1980831691505092915050565b5f611ff98383611fd2565b9150826002028217905092915050565b61201282611a36565b67ffffffffffffffff81111561202b5761202a6118b8565b5b6120358254611d79565b612040828285611f73565b5f60209050601f831160018114612071575f841561205f578287015190505b6120698582611fee565b8655506120d0565b601f19841661207f86611e58565b5f5b828110156120a657848901518255600182019150602085019450602081019050612081565b868310156120c357848901516120bf601f891682611fd2565b8355505b6001600288020188555050505b505050505050565b5f81546120e481611d79565b6120ee8186611c03565b9450600182165f8114612108576001811461211d5761214f565b60ff198316865281151582028601935061214f565b61212685611e58565b5f5b8381101561214757815481890152600182019150602081019050612128565b838801955050505b50505092915050565b5f61216382846120d8565b915081905092915050565b7f4e487b71000000000000000000000000000000000000000000000000000000005f52603260045260245ffd5b7f4e487b71000000000000000000000000000000000000000000000000000000005f52602160045260245ffd5b5f60ff82169050919050565b6121dd816121c8565b82525050565b5f6080820190506121f65f8301876116f8565b61220360208301866121d4565b61221060408301856116f8565b61221d60608301846116f8565b9594505050505056fea2646970667358221220d7d1628944265e290df96634e965b29247039dee34ea99f41765fc44d19cb7d064736f6c63430008210033","linkReferences":{}},"methodIdentifiers":{"TIMELOCK_DURATION()":"4623c81e","balances(address)":"27e235e3","claim(bytes32[],uint256)":"3b439351","claimed(address)":"c884ef83","confirmTransaction(uint256)":"c01a8c84","confirmed(uint256,address)":"8790c1de","deposit()":"d0e30db0","executeTransaction(uint256)":"ee22610b","isOwner(address)":"2f54bf6e","merkleRoot()":"2eb4a7ab","owners(uint256)":"025e7c27","pause()":"8456cb59","paused()":"5c975abb","recoverSigner(bytes32,bytes)":"97aba7f9","setMerkleRoot(bytes32)":"7cb64759","submitTransaction(address,uint256,bytes)":"c6427474","threshold()":"42cde4e8","totalVaultValue()":"afbc74b9","transactions(uint256)":"9ace38c2","txCount()":"3c540687","unpause()":"3f4ba83a","withdraw(uint256)":"2e1a7d4d"},"id":19}