{"abi":[{"type":"constructor","inputs":[{"name":"_owners","type":"address[]","internalType":"address[]"},{"name":"_threshold","type":"uint256","internalType":"uint256"}],"stateMutability":"nonpayable"},{"type":"function","name":"confirmTransaction","inputs":[{"name":"txId","type":"uint256","internalType":"uint256"}],"outputs":[],"stateMutability":"nonpayable"},{"type":"function","name":"confirmed","inputs":[{"name":"","type":"uint256","internalType":"uint256"},{"name":"","type":"address","internalType":"address"}],"outputs":[{"name":"","type":"bool","internalType":"bool"}],"stateMutability":"view"},{"type":"function","name":"executeTransaction","inputs":[{"name":"","type":"uint256","internalType":"uint256"}],"outputs":[],"stateMutability":"nonpayable"},{"type":"function","name":"isOwner","inputs":[{"name":"","type":"address","internalType":"address"}],"outputs":[{"name":"","type":"bool","internalType":"bool"}],"stateMutability":"view"},{"type":"function","name":"owners","inputs":[{"name":"","type":"uint256","internalType":"uint256"}],"outputs":[{"name":"","type":"address","internalType":"address"}],"stateMutability":"view"},{"type":"function","name":"submitTransaction","inputs":[{"name":"to","type":"address","internalType":"address"},{"name":"value","type":"uint256","internalType":"uint256"},{"name":"data","type":"bytes","internalType":"bytes"}],"outputs":[{"name":"","type":"uint256","internalType":"uint256"}],"stateMutability":"nonpayable"},{"type":"function","name":"threshold","inputs":[],"outputs":[{"name":"","type":"uint256","internalType":"uint256"}],"stateMutability":"view"},{"type":"function","name":"transactions","inputs":[{"name":"","type":"uint256","internalType":"uint256"}],"outputs":[{"name":"to","type":"address","internalType":"address"},{"name":"value","type":"uint256","internalType":"uint256"},{"name":"data","type":"bytes","internalType":"bytes"},{"name":"executed","type":"bool","internalType":"bool"},{"name":"confirmations","type":"uint256","internalType":"uint256"},{"name":"submissionTime","type":"uint256","internalType":"uint256"},{"name":"executionTime","type":"uint256","internalType":"uint256"}],"stateMutability":"view"},{"type":"function","name":"txCount","inputs":[],"outputs":[{"name":"","type":"uint256","internalType":"uint256"}],"stateMutability":"view"}],"bytecode":{"object":"0x608060405234801561000f575f5ffd5b506040516112d63803806112d683398181016040528101906100319190610347565b5f82511161003d575f5ffd5b815181111561004a575f5ffd5b5f5b825181101561014a5760015f5f85848151811061006c5761006b6103a1565b5b602002602001015173ffffffffffffffffffffffffffffffffffffffff1673ffffffffffffffffffffffffffffffffffffffff1681526020019081526020015f205f6101000a81548160ff02191690831515021790555060018382815181106100d8576100d76103a1565b5b6020026020010151908060018154018082558091505060019003905f5260205f20015f9091909190916101000a81548173ffffffffffffffffffffffffffffffffffffffff021916908373ffffffffffffffffffffffffffffffffffffffff160217905550808060010191505061004c565b508060028190555050506103ce565b5f604051905090565b5f5ffd5b5f5ffd5b5f5ffd5b5f601f19601f8301169050919050565b7f4e487b71000000000000000000000000000000000000000000000000000000005f52604160045260245ffd5b6101b48261016e565b810181811067ffffffffffffffff821117156101d3576101d261017e565b5b80604052505050565b5f6101e5610159565b90506101f182826101ab565b919050565b5f67ffffffffffffffff8211156102105761020f61017e565b5b602082029050602081019050919050565b5f5ffd5b5f73ffffffffffffffffffffffffffffffffffffffff82169050919050565b5f61024e82610225565b9050919050565b61025e81610244565b8114610268575f5ffd5b50565b5f8151905061027981610255565b92915050565b5f61029161028c846101f6565b6101dc565b905080838252602082019050602084028301858111156102b4576102b3610221565b5b835b818110156102dd57806102c9888261026b565b8452602084019350506020810190506102b6565b5050509392505050565b5f82601f8301126102fb576102fa61016a565b5b815161030b84826020860161027f565b91505092915050565b5f819050919050565b61032681610314565b8114610330575f5ffd5b50565b5f815190506103418161031d565b92915050565b5f5f6040838503121561035d5761035c610162565b5b5f83015167ffffffffffffffff81111561037a57610379610166565b5b610386858286016102e7565b925050602061039785828601610333565b9150509250929050565b7f4e487b71000000000000000000000000000000000000000000000000000000005f52603260045260245ffd5b610efb806103db5f395ff3fe608060405234801561000f575f5ffd5b5060043610610091575f3560e01c80638790c1de116100645780638790c1de146101315780639ace38c214610161578063c01a8c8414610197578063c6427474146101b3578063ee22610b146101e357610091565b8063025e7c27146100955780632f54bf6e146100c55780633c540687146100f557806342cde4e814610113575b5f5ffd5b6100af60048036038101906100aa91906107a8565b6101ff565b6040516100bc9190610812565b60405180910390f35b6100df60048036038101906100da9190610855565b61023a565b6040516100ec919061089a565b60405180910390f35b6100fd610256565b60405161010a91906108c2565b60405180910390f35b61011b61025c565b60405161012891906108c2565b60405180910390f35b61014b600480360381019061014691906108db565b610262565b604051610158919061089a565b60405180910390f35b61017b600480360381019061017691906107a8565b61028c565b60405161018e9796959493929190610989565b60405180910390f35b6101b160048036038101906101ac91906107a8565b61037b565b005b6101cd60048036038101906101c89190610a5e565b610514565b6040516101da91906108c2565b60405180910390f35b6101fd60048036038101906101f891906107a8565b61076a565b005b6001818154811061020e575f80fd5b905f5260205f20015f915054906101000a900473ffffffffffffffffffffffffffffffffffffffff1681565b5f602052805f5260405f205f915054906101000a900460ff1681565b60055481565b60025481565b6003602052815f5260405f20602052805f5260405f205f915091509054906101000a900460ff1681565b6004602052805f5260405f205f91509050805f015f9054906101000a900473ffffffffffffffffffffffffffffffffffffffff16908060010154908060020180546102d690610afc565b80601f016020809104026020016040519081016040528092919081815260200182805461030290610afc565b801561034d5780601f106103245761010080835404028352916020019161034d565b820191905f5260205f20905b81548152906001019060200180831161033057829003601f168201915b505050505090806003015f9054906101000a900460ff16908060040154908060050154908060060154905087565b5f5f3373ffffffffffffffffffffffffffffffffffffffff1673ffffffffffffffffffffffffffffffffffffffff1681526020019081526020015f205f9054906101000a900460ff16610403576040517f08c379a00000000000000000000000000000000000000000000000000000000081526004016103fa90610b86565b60405180910390fd5b5f60045f8381526020019081526020015f209050806003015f9054906101000a900460ff1615610431575f5ffd5b60035f8381526020019081526020015f205f3373ffffffffffffffffffffffffffffffffffffffff1673ffffffffffffffffffffffffffffffffffffffff1681526020019081526020015f205f9054906101000a900460ff1615610493575f5ffd5b600160035f8481526020019081526020015f205f3373ffffffffffffffffffffffffffffffffffffffff1673ffffffffffffffffffffffffffffffffffffffff1681526020019081526020015f205f6101000a81548160ff021916908315150217905550806004015f81548092919061050b90610bd1565b91905055505050565b5f5f5f3373ffffffffffffffffffffffffffffffffffffffff1673ffffffffffffffffffffffffffffffffffffffff1681526020019081526020015f205f9054906101000a900460ff1661059d576040517f08c379a000000000000000000000000000000000000000000000000000000000815260040161059490610b86565b60405180910390fd5b5f60055f8154809291906105b090610bd1565b9190505590506040518060e001604052808773ffffffffffffffffffffffffffffffffffffffff16815260200186815260200185858080601f0160208091040260200160405190810160405280939291908181526020018383808284375f81840152601f19601f8201169050808301925050505050505081526020015f15158152602001600181526020014281526020015f81525060045f8381526020019081526020015f205f820151815f015f6101000a81548173ffffffffffffffffffffffffffffffffffffffff021916908373ffffffffffffffffffffffffffffffffffffffff1602179055506020820151816001015560408201518160020190816106b99190610df6565b506060820151816003015f6101000a81548160ff0219169083151502179055506080820151816004015560a0820151816005015560c08201518160060155905050600160035f8381526020019081526020015f205f3373ffffffffffffffffffffffffffffffffffffffff1673ffffffffffffffffffffffffffffffffffffffff1681526020019081526020015f205f6101000a81548160ff02191690831515021790555080915050949350505050565b50565b5f5ffd5b5f5ffd5b5f819050919050565b61078781610775565b8114610791575f5ffd5b50565b5f813590506107a28161077e565b92915050565b5f602082840312156107bd576107bc61076d565b5b5f6107ca84828501610794565b91505092915050565b5f73ffffffffffffffffffffffffffffffffffffffff82169050919050565b5f6107fc826107d3565b9050919050565b61080c816107f2565b82525050565b5f6020820190506108255f830184610803565b92915050565b610834816107f2565b811461083e575f5ffd5b50565b5f8135905061084f8161082b565b92915050565b5f6020828403121561086a5761086961076d565b5b5f61087784828501610841565b91505092915050565b5f8115159050919050565b61089481610880565b82525050565b5f6020820190506108ad5f83018461088b565b92915050565b6108bc81610775565b82525050565b5f6020820190506108d55f8301846108b3565b92915050565b5f5f604083850312156108f1576108f061076d565b5b5f6108fe85828601610794565b925050602061090f85828601610841565b9150509250929050565b5f81519050919050565b5f82825260208201905092915050565b8281835e5f83830152505050565b5f601f19601f8301169050919050565b5f61095b82610919565b6109658185610923565b9350610975818560208601610933565b61097e81610941565b840191505092915050565b5f60e08201905061099c5f83018a610803565b6109a960208301896108b3565b81810360408301526109bb8188610951565b90506109ca606083018761088b565b6109d760808301866108b3565b6109e460a08301856108b3565b6109f160c08301846108b3565b98975050505050505050565b5f5ffd5b5f5ffd5b5f5ffd5b5f5f83601f840112610a1e57610a1d6109fd565b5b8235905067ffffffffffffffff811115610a3b57610a3a610a01565b5b602083019150836001820283011115610a5757610a56610a05565b5b9250929050565b5f5f5f5f60608587031215610a7657610a7561076d565b5b5f610a8387828801610841565b9450506020610a9487828801610794565b935050604085013567ffffffffffffffff811115610ab557610ab4610771565b5b610ac187828801610a09565b925092505092959194509250565b7f4e487b71000000000000000000000000000000000000000000000000000000005f52602260045260245ffd5b5f6002820490506001821680610b1357607f821691505b602082108103610b2657610b25610acf565b5b50919050565b5f82825260208201905092915050565b7f6e6f74206f776e657200000000000000000000000000000000000000000000005f82015250565b5f610b70600983610b2c565b9150610b7b82610b3c565b602082019050919050565b5f6020820190508181035f830152610b9d81610b64565b9050919050565b7f4e487b71000000000000000000000000000000000000000000000000000000005f52601160045260245ffd5b5f610bdb82610775565b91507fffffffffffffffffffffffffffffffffffffffffffffffffffffffffffffffff8203610c0d57610c0c610ba4565b5b600182019050919050565b7f4e487b71000000000000000000000000000000000000000000000000000000005f52604160045260245ffd5b5f819050815f5260205f209050919050565b5f6020601f8301049050919050565b5f82821b905092915050565b5f60088302610ca17fffffffffffffffffffffffffffffffffffffffffffffffffffffffffffffffff82610c66565b610cab8683610c66565b95508019841693508086168417925050509392505050565b5f819050919050565b5f610ce6610ce1610cdc84610775565b610cc3565b610775565b9050919050565b5f819050919050565b610cff83610ccc565b610d13610d0b82610ced565b848454610c72565b825550505050565b5f5f905090565b610d2a610d1b565b610d35818484610cf6565b505050565b5f5b82811015610d5b57610d505f828401610d22565b600181019050610d3c565b505050565b601f821115610dae5782821115610dad57610d7a81610c45565b610d8383610c57565b610d8c85610c57565b6020861015610d99575f90505b808301610da882840382610d3a565b505050505b5b505050565b5f82821c905092915050565b5f610dce5f1984600802610db3565b1980831691505092915050565b5f610de68383610dbf565b9150826002028217905092915050565b610dff82610919565b67ffffffffffffffff811115610e1857610e17610c18565b5b610e228254610afc565b610e2d828285610d60565b5f60209050601f831160018114610e5e575f8415610e4c578287015190505b610e568582610ddb565b865550610ebd565b601f198416610e6c86610c45565b5f5b82811015610e9357848901518255600182019150602085019450602081019050610e6e565b86831015610eb05784890151610eac601f891682610dbf565b8355505b6001600288020188555050505b50505050505056fea2646970667358221220fcad601bd3dd103b9ac18800708114b49b17097f8a4b04293a57104b37ceda8764736f6c63430008210033","linkReferences":{}},"methodIdentifiers":{"confirmTransaction(uint256)":"c01a8c84","confirmed(uint256,address)":"8790c1de","executeTransaction(uint256)":"ee22610b","isOwner(address)":"2f54bf6e","owners(uint256)":"025e7c27","submitTransaction(address,uint256,bytes)":"c6427474","threshold()":"42cde4e8","transactions(uint256)":"9ace38c2","txCount()":"3c540687"},"id":30}