{"abi":[{"type":"function","name":"pause","inputs":[],"outputs":[],"stateMutability":"nonpayable"},{"type":"function","name":"paused","inputs":[],"outputs":[{"name":"","type":"bool","internalType":"bool"}],"stateMutability":"view"},{"type":"function","name":"unpause","inputs":[],"outputs":[],"stateMutability":"nonpayable"}],"bytecode":{"object":"0x6080604052348015600e575f5ffd5b506101138061001c5f395ff3fe6080604052348015600e575f5ffd5b5060043610603a575f3560e01c80633f4ba83a14603e5780635c975abb1460465780638456cb59146060575b5f5ffd5b60446068565b005b604c6082565b6040516057919060c6565b60405180910390f35b60666093565b005b5f5f5f6101000a81548160ff021916908315150217905550565b5f5f9054906101000a900460ff1681565b60015f5f6101000a81548160ff021916908315150217905550565b5f8115159050919050565b60c08160ae565b82525050565b5f60208201905060d75f83018460b9565b9291505056fea2646970667358221220ee6560fc506d47d851ae7cea488e412d645b2cfa91464836c3a78f15d938fb7d64736f6c63430008210033","linkReferences":{}},"methodIdentifiers":{"pause()":"8456cb59","paused()":"5c975abb","unpause()":"3f4ba83a"},"id":26}