{"abi":[{"type":"constructor","inputs":[{"name":"owners","type":"address[]","internalType":"address[]"},{"name":"threshold","type":"uint256","internalType":"uint256"}],"stateMutability":"nonpayable"},{"type":"function","name":"TIMELOCK_DURATION","inputs":[],"outputs":[{"name":"","type":"uint256","internalType":"uint256"}],"stateMutability":"view"},{"type":"function","name":"confirmTransaction","inputs":[{"name":"txId","type":"uint256","internalType":"uint256"}],"outputs":[],"stateMutability":"nonpayable"},{"type":"function","name":"confirmed","inputs":[{"name":"","type":"uint256","internalType":"uint256"},{"name":"","type":"address","internalType":"address"}],"outputs":[{"name":"","type":"bool","internalType":"bool"}],"stateMutability":"view"},{"type":"function","name":"executeTransaction","inputs":[{"name":"txId","type":"uint256","internalType":"uint256"}],"outputs":[],"stateMutability":"nonpayable"},{"type":"function","name":"isOwner","inputs":[{"name":"","type":"address","internalType":"address"}],"outputs":[{"name":"","type":"bool","internalType":"bool"}],"stateMutability":"view"},{"type":"function","name":"owners","inputs":[{"name":"","type":"uint256","internalType":"uint256"}],"outputs":[{"name":"","type":"address","internalType":"address"}],"stateMutability":"view"},{"type":"function","name":"submitTransaction","inputs":[{"name":"to","type":"address","internalType":"address"},{"name":"value","type":"uint256","internalType":"uint256"},{"name":"data","type":"bytes","internalType":"bytes"}],"outputs":[{"name":"","type":"uint256","internalType":"uint256"}],"stateMutability":"nonpayable"},{"type":"function","name":"threshold","inputs":[],"outputs":[{"name":"","type":"uint256","internalType":"uint256"}],"stateMutability":"view"},{"type":"function","name":"transactions","inputs":[{"name":"","type":"uint256","internalType":"uint256"}],"outputs":[{"name":"to","type":"address","internalType":"address"},{"name":"value","type":"uint256","internalType":"uint256"},{"name":"data","type":"bytes","internalType":"bytes"},{"name":"executed","type":"bool","internalType":"bool"},{"name":"confirmations","type":"uint256","internalType":"uint256"},{"name":"submissionTime","type":"uint256","internalType":"uint256"},{"name":"executionTime","type":"uint256","internalType":"uint256"}],"stateMutability":"view"},{"type":"function","name":"txCount","inputs":[],"outputs":[{"name":"","type":"uint256","internalType":"uint256"}],"stateMutability":"view"}],"bytecode":{"object":"0x608060405234801561000f575f5ffd5b506040516115b33803806115b38339818101604052810190610031919061034b565b81815f82511161003f575f5ffd5b815181111561004c575f5ffd5b5f5b825181101561014c5760015f5f85848151811061006e5761006d6103a5565b5b602002602001015173ffffffffffffffffffffffffffffffffffffffff1673ffffffffffffffffffffffffffffffffffffffff1681526020019081526020015f205f6101000a81548160ff02191690831515021790555060018382815181106100da576100d96103a5565b5b6020026020010151908060018154018082558091505060019003905f5260205f20015f9091909190916101000a81548173ffffffffffffffffffffffffffffffffffffffff021916908373ffffffffffffffffffffffffffffffffffffffff160217905550808060010191505061004e565b5080600281905550505050506103d2565b5f604051905090565b5f5ffd5b5f5ffd5b5f5ffd5b5f601f19601f8301169050919050565b7f4e487b71000000000000000000000000000000000000000000000000000000005f52604160045260245ffd5b6101b882610172565b810181811067ffffffffffffffff821117156101d7576101d6610182565b5b80604052505050565b5f6101e961015d565b90506101f582826101af565b919050565b5f67ffffffffffffffff82111561021457610213610182565b5b602082029050602081019050919050565b5f5ffd5b5f73ffffffffffffffffffffffffffffffffffffffff82169050919050565b5f61025282610229565b9050919050565b61026281610248565b811461026c575f5ffd5b50565b5f8151905061027d81610259565b92915050565b5f610295610290846101fa565b6101e0565b905080838252602082019050602084028301858111156102b8576102b7610225565b5b835b818110156102e157806102cd888261026f565b8452602084019350506020810190506102ba565b5050509392505050565b5f82601f8301126102ff576102fe61016e565b5b815161030f848260208601610283565b91505092915050565b5f819050919050565b61032a81610318565b8114610334575f5ffd5b50565b5f8151905061034581610321565b92915050565b5f5f6040838503121561036157610360610166565b5b5f83015167ffffffffffffffff81111561037e5761037d61016a565b5b61038a858286016102eb565b925050602061039b85828601610337565b9150509250929050565b7f4e487b71000000000000000000000000000000000000000000000000000000005f52603260045260245ffd5b6111d4806103df5f395ff3fe608060405234801561000f575f5ffd5b506004361061009c575f3560e01c80638790c1de116100645780638790c1de1461015a5780639ace38c21461018a578063c01a8c84146101c0578063c6427474146101dc578063ee22610b1461020c5761009c565b8063025e7c27146100a05780632f54bf6e146100d05780633c5406871461010057806342cde4e81461011e5780634623c81e1461013c575b5f5ffd5b6100ba60048036038101906100b591906109ae565b610228565b6040516100c79190610a18565b60405180910390f35b6100ea60048036038101906100e59190610a5b565b610263565b6040516100f79190610aa0565b60405180910390f35b61010861027f565b6040516101159190610ac8565b60405180910390f35b610126610285565b6040516101339190610ac8565b60405180910390f35b61014461028b565b6040516101519190610ac8565b60405180910390f35b610174600480360381019061016f9190610ae1565b610291565b6040516101819190610aa0565b60405180910390f35b6101a4600480360381019061019f91906109ae565b6102bb565b6040516101b79796959493929190610b8f565b60405180910390f35b6101da60048036038101906101d591906109ae565b6103aa565b005b6101f660048036038101906101f19190610c64565b610477565b6040516102039190610ac8565b60405180910390f35b610226600480360381019061022191906109ae565b6106cd565b005b60018181548110610237575f80fd5b905f5260205f20015f915054906101000a900473ffffffffffffffffffffffffffffffffffffffff1681565b5f602052805f5260405f205f915054906101000a900460ff1681565b60055481565b60025481565b610e1081565b6003602052815f5260405f20602052805f5260405f205f915091509054906101000a900460ff1681565b6004602052805f5260405f205f91509050805f015f9054906101000a900473ffffffffffffffffffffffffffffffffffffffff169080600101549080600201805461030590610d02565b80601f016020809104026020016040519081016040528092919081815260200182805461033190610d02565b801561037c5780601f106103535761010080835404028352916020019161037c565b820191905f5260205f20905b81548152906001019060200180831161035f57829003601f168201915b505050505090806003015f9054906101000a900460ff16908060040154908060050154908060060154905087565b5f5f3373ffffffffffffffffffffffffffffffffffffffff1673ffffffffffffffffffffffffffffffffffffffff1681526020019081526020015f205f9054906101000a900460ff16610432576040517f08c379a000000000000000000000000000000000000000000000000000000000815260040161042990610d8c565b60405180910390fd5b61043b816107da565b5f60045f8381526020019081526020015f20905060025481600401541061047357610e104261046a9190610dd7565b81600601819055505b5050565b5f5f5f3373ffffffffffffffffffffffffffffffffffffffff1673ffffffffffffffffffffffffffffffffffffffff1681526020019081526020015f205f9054906101000a900460ff16610500576040517f08c379a00000000000000000000000000000000000000000000000000000000081526004016104f790610d8c565b60405180910390fd5b5f60055f81548092919061051390610e0a565b9190505590506040518060e001604052808773ffffffffffffffffffffffffffffffffffffffff16815260200186815260200185858080601f0160208091040260200160405190810160405280939291908181526020018383808284375f81840152601f19601f8201169050808301925050505050505081526020015f15158152602001600181526020014281526020015f81525060045f8381526020019081526020015f205f820151815f015f6101000a81548173ffffffffffffffffffffffffffffffffffffffff021916908373ffffffffffffffffffffffffffffffffffffffff16021790555060208201518160010155604082015181600201908161061c919061102f565b506060820151816003015f6101000a81548160ff0219169083151502179055506080820151816004015560a0820151816005015560c08201518160060155905050600160035f8381526020019081526020015f205f3373ffffffffffffffffffffffffffffffffffffffff1673ffffffffffffffffffffffffffffffffffffffff1681526020019081526020015f205f6101000a81548160ff02191690831515021790555080915050949350505050565b5f60045f8381526020019081526020015f209050806003015f9054906101000a900460ff16156106fb575f5ffd5b6002548160040154101561070d575f5ffd5b806006015442101561071d575f5ffd5b6001816003015f6101000a81548160ff0219169083151502179055505f815f015f9054906101000a900473ffffffffffffffffffffffffffffffffffffffff1673ffffffffffffffffffffffffffffffffffffffff168260010154836002016040516107899190611188565b5f6040518083038185875af1925050503d805f81146107c3576040519150601f19603f3d011682016040523d82523d5f602084013e6107c8565b606091505b50509050806107d5575f5ffd5b505050565b5f5f3373ffffffffffffffffffffffffffffffffffffffff1673ffffffffffffffffffffffffffffffffffffffff1681526020019081526020015f205f9054906101000a900460ff16610862576040517f08c379a000000000000000000000000000000000000000000000000000000000815260040161085990610d8c565b60405180910390fd5b5f60045f8381526020019081526020015f209050806003015f9054906101000a900460ff1615610890575f5ffd5b60035f8381526020019081526020015f205f3373ffffffffffffffffffffffffffffffffffffffff1673ffffffffffffffffffffffffffffffffffffffff1681526020019081526020015f205f9054906101000a900460ff16156108f2575f5ffd5b600160035f8481526020019081526020015f205f3373ffffffffffffffffffffffffffffffffffffffff1673ffffffffffffffffffffffffffffffffffffffff1681526020019081526020015f205f6101000a81548160ff021916908315150217905550806004015f81548092919061096a90610e0a565b91905055505050565b5f5ffd5b5f5ffd5b5f819050919050565b61098d8161097b565b8114610997575f5ffd5b50565b5f813590506109a881610984565b92915050565b5f602082840312156109c3576109c2610973565b5b5f6109d08482850161099a565b91505092915050565b5f73ffffffffffffffffffffffffffffffffffffffff82169050919050565b5f610a02826109d9565b9050919050565b610a12816109f8565b82525050565b5f602082019050610a2b5f830184610a09565b92915050565b610a3a816109f8565b8114610a44575f5ffd5b50565b5f81359050610a5581610a31565b92915050565b5f60208284031215610a7057610a6f610973565b5b5f610a7d84828501610a47565b91505092915050565b5f8115159050919050565b610a9a81610a86565b82525050565b5f602082019050610ab35f830184610a91565b92915050565b610ac28161097b565b82525050565b5f602082019050610adb5f830184610ab9565b92915050565b5f5f60408385031215610af757610af6610973565b5b5f610b048582860161099a565b9250506020610b1585828601610a47565b9150509250929050565b5f81519050919050565b5f82825260208201905092915050565b8281835e5f83830152505050565b5f601f19601f8301169050919050565b5f610b6182610b1f565b610b6b8185610b29565b9350610b7b818560208601610b39565b610b8481610b47565b840191505092915050565b5f60e082019050610ba25f83018a610a09565b610baf6020830189610ab9565b8181036040830152610bc18188610b57565b9050610bd06060830187610a91565b610bdd6080830186610ab9565b610bea60a0830185610ab9565b610bf760c0830184610ab9565b98975050505050505050565b5f5ffd5b5f5ffd5b5f5ffd5b5f5f83601f840112610c2457610c23610c03565b5b8235905067ffffffffffffffff811115610c4157610c40610c07565b5b602083019150836001820283011115610c5d57610c5c610c0b565b5b9250929050565b5f5f5f5f60608587031215610c7c57610c7b610973565b5b5f610c8987828801610a47565b9450506020610c9a8782880161099a565b935050604085013567ffffffffffffffff811115610cbb57610cba610977565b5b610cc787828801610c0f565b925092505092959194509250565b7f4e487b71000000000000000000000000000000000000000000000000000000005f52602260045260245ffd5b5f6002820490506001821680610d1957607f821691505b602082108103610d2c57610d2b610cd5565b5b50919050565b5f82825260208201905092915050565b7f6e6f74206f776e657200000000000000000000000000000000000000000000005f82015250565b5f610d76600983610d32565b9150610d8182610d42565b602082019050919050565b5f6020820190508181035f830152610da381610d6a565b9050919050565b7f4e487b71000000000000000000000000000000000000000000000000000000005f52601160045260245ffd5b5f610de18261097b565b9150610dec8361097b565b9250828201905080821115610e0457610e03610daa565b5b92915050565b5f610e148261097b565b91507fffffffffffffffffffffffffffffffffffffffffffffffffffffffffffffffff8203610e4657610e45610daa565b5b600182019050919050565b7f4e487b71000000000000000000000000000000000000000000000000000000005f52604160045260245ffd5b5f819050815f5260205f209050919050565b5f6020601f8301049050919050565b5f82821b905092915050565b5f60088302610eda7fffffffffffffffffffffffffffffffffffffffffffffffffffffffffffffffff82610e9f565b610ee48683610e9f565b95508019841693508086168417925050509392505050565b5f819050919050565b5f610f1f610f1a610f158461097b565b610efc565b61097b565b9050919050565b5f819050919050565b610f3883610f05565b610f4c610f4482610f26565b848454610eab565b825550505050565b5f5f905090565b610f63610f54565b610f6e818484610f2f565b505050565b5f5b82811015610f9457610f895f828401610f5b565b600181019050610f75565b505050565b601f821115610fe75782821115610fe657610fb381610e7e565b610fbc83610e90565b610fc585610e90565b6020861015610fd2575f90505b808301610fe182840382610f73565b505050505b5b505050565b5f82821c905092915050565b5f6110075f1984600802610fec565b1980831691505092915050565b5f61101f8383610ff8565b9150826002028217905092915050565b61103882610b1f565b67ffffffffffffffff81111561105157611050610e51565b5b61105b8254610d02565b611066828285610f99565b5f60209050601f831160018114611097575f8415611085578287015190505b61108f8582611014565b8655506110f6565b601f1984166110a586610e7e565b5f5b828110156110cc578489015182556001820191506020850194506020810190506110a7565b868310156110e957848901516110e5601f891682610ff8565b8355505b6001600288020188555050505b505050505050565b5f81905092915050565b5f815461111481610d02565b61111e81866110fe565b9450600182165f8114611138576001811461114d5761117f565b60ff198316865281151582028601935061117f565b61115685610e7e565b5f5b8381101561117757815481890152600182019150602081019050611158565b838801955050505b50505092915050565b5f6111938284611108565b91508190509291505056fea2646970667358221220f118d67bb0fbf9336b2f61ae607f9646f5e7c3e0cc8c8b39be9225604900e9ec64736f6c63430008210033","linkReferences":{}},"methodIdentifiers":{"TIMELOCK_DURATION()":"4623c81e","confirmTransaction(uint256)":"c01a8c84","confirmed(uint256,address)":"8790c1de","executeTransaction(uint256)":"ee22610b","isOwner(address)":"2f54bf6e","owners(uint256)":"025e7c27","submitTransaction(address,uint256,bytes)":"c6427474","threshold()":"42cde4e8","transactions(uint256)":"9ace38c2","txCount()":"3c540687"},"id":28}