{"abi":[{"type":"function","name":"claim","inputs":[{"name":"proof","type":"bytes32[]","internalType":"bytes32[]"},{"name":"amount","type":"uint256","internalType":"uint256"}],"outputs":[],"stateMutability":"nonpayable"},{"type":"function","name":"claimed","inputs":[{"name":"","type":"address","internalType":"address"}],"outputs":[{"name":"","type":"bool","internalType":"bool"}],"stateMutability":"view"},{"type":"function","name":"merkleRoot","inputs":[],"outputs":[{"name":"","type":"bytes32","internalType":"bytes32"}],"stateMutability":"view"},{"type":"function","name":"setMerkleRoot","inputs":[{"name":"root","type":"bytes32","internalType":"bytes32"}],"outputs":[],"stateMutability":"nonpayable"}],"bytecode":{"object":"0x6080604052348015600e575f5ffd5b5061075d8061001c5f395ff3fe608060405234801561000f575f5ffd5b506004361061004a575f3560e01c80632eb4a7ab1461004e5780633b4393511461006c5780637cb6475914610088578063c884ef83146100a4575b5f5ffd5b6100566100d4565b6040516100639190610392565b60405180910390f35b61008660048036038101906100819190610447565b6100d9565b005b6100a2600480360381019061009d91906104ce565b6102af565b005b6100be60048036038101906100b99190610553565b6102b8565b6040516100cb9190610598565b60405180910390f35b5f5481565b5f33826040516020016100ed929190610616565b6040516020818303038152906040528051906020012090506101518484808060200260200160405190810160405280939291908181526020018383602002808284375f81840152601f19601f820116905080830192505050505050505f54836102d5565b610190576040517f08c379a00000000000000000000000000000000000000000000000000000000081526004016101879061069b565b60405180910390fd5b60015f3373ffffffffffffffffffffffffffffffffffffffff1673ffffffffffffffffffffffffffffffffffffffff1681526020019081526020015f205f9054906101000a900460ff16156101e3575f5ffd5b6001805f3373ffffffffffffffffffffffffffffffffffffffff1673ffffffffffffffffffffffffffffffffffffffff1681526020019081526020015f205f6101000a81548160ff0219169083151502179055505f3373ffffffffffffffffffffffffffffffffffffffff168360405161025c906106e6565b5f6040518083038185875af1925050503d805f8114610296576040519150601f19603f3d011682016040523d82523d5f602084013e61029b565b606091505b50509050806102a8575f5ffd5b5050505050565b805f8190555050565b6001602052805f5260405f205f915054906101000a900460ff1681565b5f826102e185846102eb565b1490509392505050565b5f5f8290505f5f90505b84518110156103315761032282868381518110610315576103146106fa565b5b602002602001015161033c565b915080806001019150506102f5565b508091505092915050565b5f8183106103535761034e8284610366565b61035e565b61035d8383610366565b5b905092915050565b5f825f528160205260405f20905092915050565b5f819050919050565b61038c8161037a565b82525050565b5f6020820190506103a55f830184610383565b92915050565b5f5ffd5b5f5ffd5b5f5ffd5b5f5ffd5b5f5ffd5b5f5f83601f8401126103d4576103d36103b3565b5b8235905067ffffffffffffffff8111156103f1576103f06103b7565b5b60208301915083602082028301111561040d5761040c6103bb565b5b9250929050565b5f819050919050565b61042681610414565b8114610430575f5ffd5b50565b5f813590506104418161041d565b92915050565b5f5f5f6040848603121561045e5761045d6103ab565b5b5f84013567ffffffffffffffff81111561047b5761047a6103af565b5b610487868287016103bf565b9350935050602061049a86828701610433565b9150509250925092565b6104ad8161037a565b81146104b7575f5ffd5b50565b5f813590506104c8816104a4565b92915050565b5f602082840312156104e3576104e26103ab565b5b5f6104f0848285016104ba565b91505092915050565b5f73ffffffffffffffffffffffffffffffffffffffff82169050919050565b5f610522826104f9565b9050919050565b61053281610518565b811461053c575f5ffd5b50565b5f8135905061054d81610529565b92915050565b5f60208284031215610568576105676103ab565b5b5f6105758482850161053f565b91505092915050565b5f8115159050919050565b6105928161057e565b82525050565b5f6020820190506105ab5f830184610589565b92915050565b5f8160601b9050919050565b5f6105c7826105b1565b9050919050565b5f6105d8826105bd565b9050919050565b6105f06105eb82610518565b6105ce565b82525050565b5f819050919050565b61061061060b82610414565b6105f6565b82525050565b5f61062182856105df565b60148201915061063182846105ff565b6020820191508190509392505050565b5f82825260208201905092915050565b7f696e76616c69642070726f6f66000000000000000000000000000000000000005f82015250565b5f610685600d83610641565b915061069082610651565b602082019050919050565b5f6020820190508181035f8301526106b281610679565b9050919050565b5f81905092915050565b50565b5f6106d15f836106b9565b91506106dc826106c3565b5f82019050919050565b5f6106f0826106c6565b9150819050919050565b7f4e487b71000000000000000000000000000000000000000000000000000000005f52603260045260245ffdfea2646970667358221220a97ca0ee78e07fc71c390d2ff1153e2e841bf84fb2386fa1184b038f2b41ab5364736f6c63430008210033","linkReferences":{}},"methodIdentifiers":{"claim(bytes32[],uint256)":"3b439351","claimed(address)":"c884ef83","merkleRoot()":"2eb4a7ab","setMerkleRoot(bytes32)":"7cb64759"},"id":29}